{
    "_format": "hh-sol-artifact-1",
    "contractName": "Whitelist",
    "sourceName": "contracts/Whitelist.sol",
    "abi": [
        {
            "inputs": [
                {
                    "internalType": "uint256",
                    "name": "_totalSlots",
                    "type": "uint256"
                }
            ],
            "stateMutability": "nonpayable",
            "type": "constructor"
        },
        {
            "inputs": [
                {
                    "internalType": "address",
                    "name": "",
                    "type": "address"
                }
            ],
            "name": "alreadyParticipated",
            "outputs": [
                {
                    "internalType": "bool",
                    "name": "",
                    "type": "bool"
                }
            ],
            "stateMutability": "view",
            "type": "function"
        },
        {
            "inputs": [],
            "name": "participate",
            "outputs": [],
            "stateMutability": "nonpayable",
            "type": "function"
        },
        {
            "inputs": [],
            "name": "slotsFilled",
            "outputs": [
                {
                    "internalType": "uint256",
                    "name": "",
                    "type": "uint256"
                }
            ],
            "stateMutability": "view",
            "type": "function"
        },
        {
            "inputs": [],
            "name": "totalSlots",
            "outputs": [
                {
                    "internalType": "uint256",
                    "name": "",
                    "type": "uint256"
                }
            ],
            "stateMutability": "view",
            "type": "function"
        }
    ],
    "bytecode": "0x608060405234801561001057600080fd5b506040516105be3803806105be83398181016040528101906100329190610054565b806000819055505061009e565b60008151905061004e81610087565b92915050565b60006020828403121561006657600080fd5b60006100748482850161003f565b91505092915050565b6000819050919050565b6100908161007d565b811461009b57600080fd5b50565b610511806100ad6000396000f3fe608060405234801561001057600080fd5b506004361061004c5760003560e01c806303e6ef6214610051578063326519061461006f57806363abc3811461008d578063d11711a2146100bd575b600080fd5b6100596100c7565b60405161006691906103cb565b60405180910390f35b6100776100cd565b60405161008491906103cb565b60405180910390f35b6100a760048036038101906100a291906102a9565b6100d3565b6040516100b49190610370565b60405180910390f35b6100c56100f3565b005b60035481565b60005481565b60026020528060005260406000206000915054906101000a900460ff1681565b60035460005411610139576040517f08c379a0000000000000000000000000000000000000000000000000000000008152600401610130906103ab565b60405180910390fd5b60001515600260003373ffffffffffffffffffffffffffffffffffffffff1673ffffffffffffffffffffffffffffffffffffffff16815260200190815260200160002060009054906101000a900460ff161515146101cc576040517f08c379a00000000000000000000000000000000000000000000000000000000081526004016101c39061038b565b60405180910390fd5b3360016000600354815260200190815260200160002060006101000a81548173ffffffffffffffffffffffffffffffffffffffff021916908373ffffffffffffffffffffffffffffffffffffffff16021790555060016003600082825461023391906103f7565b925050819055506001600260003373ffffffffffffffffffffffffffffffffffffffff1673ffffffffffffffffffffffffffffffffffffffff16815260200190815260200160002060006101000a81548160ff021916908315150217905550565b6000813590506102a3816104c4565b92915050565b6000602082840312156102bb57600080fd5b60006102c984828501610294565b91505092915050565b6102db8161045f565b82525050565b60006102ee601c836103e6565b91507f596f75206861766520616c72656164792057686974656c6973746564000000006000830152602082019050919050565b600061032e6011836103e6565b91507f57686974656c6973742069732046756c6c0000000000000000000000000000006000830152602082019050919050565b61036a8161048b565b82525050565b600060208201905061038560008301846102d2565b92915050565b600060208201905081810360008301526103a4816102e1565b9050919050565b600060208201905081810360008301526103c481610321565b9050919050565b60006020820190506103e06000830184610361565b92915050565b600082825260208201905092915050565b60006104028261048b565b915061040d8361048b565b9250827fffffffffffffffffffffffffffffffffffffffffffffffffffffffffffffffff0382111561044257610441610495565b5b828201905092915050565b60006104588261046b565b9050919050565b60008115159050919050565b600073ffffffffffffffffffffffffffffffffffffffff82169050919050565b6000819050919050565b7f4e487b7100000000000000000000000000000000000000000000000000000000600052601160045260246000fd5b6104cd8161044d565b81146104d857600080fd5b5056fea2646970667358221220e7e9875f85c0f8ba1fe51f464804e74083a75afd5af04fe0eac001eeac56fd9764736f6c63430008000033",
    "linkReferences": {},
    "deployedLinkReferences": {}
}